:100000000C9462000C948A000C948A000C948A0070
:100010000C948A000C948A000C948A000C948A0038
:100020000C948A000C948A000C948A000C948A0028
:100030000C948A000C948A000C948A000C948A0018
:100040000C9454060C948A000C94C4060C949E06DE
:100050000C948A000C948A000C948A000C948A00F8
:100060000C948A000C948A000000000024002700F1
:100070002A0000000000250028002B0000000008D6
:10008000000201000003040700000000000000005F
:1000900000000000230026002900040404040404D6
:1000A0000404020202020202030303030303010227
:1000B00004081020408001020408102001020408F6
:1000C0001020F60611241FBECFEFD8E0DEBFCDBF53
:1000D00011E0A0E0B1E0E2EEF7E102C005900D9280
:1000E000A837B107D9F722E0A8E7B1E001C01D9217
:1000F000A934B207E1F710E0C2E6D0E004C02197CE
:10010000FE010E94E90BC136D107C9F70E946207C0
:100110000C94EF0B0C940000CF92DF92EF92FF92C1
:10012000CF93DF93B0912502A0E08111AB2F809196
:10013000260290E0880F991FAC0140575F4FC09096
:100140002B02D0902C02E0902D02F0902E0230E095
:1001500020E0FA01C591D491E881B90190E080E0F6
:10016000EB23EA130AC02F5F3F4F6C157D058E0508
:100170009F0578F36FEF7FEFCB01DF91CF91FF9079
:10018000EF90DF90CF900895833081F028F4813094
:1001900099F08230A9F008958730A9F08830C9F02D
:1001A0008430B1F4809180008F7D03C08091800005
:1001B0008F7780938000089584B58F7784BD0895EC
:1001C00084B58F7DFBCF8091B0008F778093B00096
:1001D00008958091B0008F7DF9CF1F93CF93DF9367
:1001E000282F30E0F901E458FF4F8491F901E255DE
:1001F000FF4FD491F901E656FF4FC491CC23A9F0EB
:10020000162F81110E94C400EC2FF0E0EE0FFF1FAB
:10021000EE58FF4FA591B4918FB7F894EC9111115E
:1002200008C0D095DE23DC938FBFDF91CF911F9163
:100230000895DE2BF8CFCF93DF9390E0FC01E255D9
:10024000FF4F249186569F4FFC0184918823D1F063
:1002500090E0880F991FFC01E859FF4FA591B491D8
:10026000FC01EE58FF4FC591D491623071F49FB7F5
:10027000F8943C91822F809583238C93E8812E2BD8
:1002800028839FBFDF91CF9108958FB7F894EC91A9
:100290002E2B2C938FBFF6CF3FB7F8948091790126
:1002A00090917A01A0917B01B0917C0126B5A89B29
:1002B00005C02F3F19F00196A11DB11D3FBFBA2FF8
:1002C000A92F982F8827BC01CD01620F711D811DB8
:1002D000911D42E0660F771F881F991F4A95D1F73D
:1002E00008958F929F92AF92BF92CF92DF92EF923A
:1002F000FF924B015C010E944C016B017C010E944A
:100300004C016C197D098E099F09683E7340810577
:100310009105A8F321E0821A9108A108B10888EE9E
:10032000C80E83E0D81EE11CF11C81149104A104C5
:10033000B10429F7FF90EF90DF90CF90BF90AF907E
:100340009F908F900895CF92DF92EF92FF920F933C
:100350001F93CF93DF93CDB7DEB7C054D1400FB614
:10036000F894DEBF0FBECDBF2FB7F89480917D010A
:1003700090917E01A0917F01B09180012FBF4091AB
:100380002702509128026091290270912A028C0163
:100390009D01041B150B260B370BB901A801403D2D
:1003A00057406105710590F480912F02C05CDE4FCB
:1003B0000FB6F894DEBF0FBECDBFDF91CF911F9176
:1003C0000F91FF90EF90DF90CF90089580932702D8
:1003D00090932802A0932902B0932A02109222023D
:1003E000109221021092200210921F0210921E02FF
:1003F00062E0809123020E941B0161E070E080E0D6
:1004000090E00E94710161E0809123020E941B0133
:1004100060E0809123020E94ED00809124028551CA
:10042000823020F58BE291E10197F1F762E0809153
:1004300023020E941B018091300290E082309105DE
:1004400038F0880F991F880F991F05970197F1F7CA
:10045000F89480E00E948C006F3F7F4F8F4F9F4F3A
:1004600061F410922F02789480E0A0CF64E170E0F4
:1004700080E090E00E947101D9CF81E00E948C0061
:100480006F3F7F4F8F4F9F4F61F38E010F5F1F4F65
:100490006E018FEBC81A8EEFD80A780180E00E94B7
:1004A0008C00F701608371838283938381E00E94D3
:1004B0008C00F7016483758386839783F8E0EF0EE1
:1004C000F11CEC14FD0451F7789430E020E0F801C1
:1004D000C080D180E280F38044815581668177813C
:1004E000FFEFCF16DF06EF06FF0631F04F3F8FEF2D
:1004F00058076807780719F410922F02B5CFF90151
:1005000083E0F595E7958A95E1F7E25EFD4F8081FE
:10051000880FC416D506E606F70610F180832F5F14
:100520003F4F085F1F4F2832310589F64091220264
:1005300020911E0280911F02280F3327331F8091C4
:100540002002280F311D80912102820F932F911DCF
:1005500099274817190681F681E080932F0226CF4C
:100560008160DCCFAF92BF92CF92DF92EF92FF9289
:100570000F931F93CF93DF936C017B018B01040FCB
:10058000151FEB015E01AE18BF08C017D10759F067
:100590006991D601ED91FC910190F081E02DC601A9
:1005A0000995892B79F7C501DF91CF911F910F91A3
:1005B000FF90EF90DF90CF90BF90AF900895FC0137
:1005C000538D448D252F30E0842F90E0821B930BB8
:1005D000541710F0CF96089501970895FC01918D5E
:1005E000828D981761F0A28DAE0FBF2FB11D5D9661
:1005F0008C91928D9F5F9F73928F90E008958FEF03
:100600009FEF0895FC01918D828D981731F0828DB6
:10061000E80FF11D858D90E008958FEF9FEF08950D
:10062000FC01918D228D892F90E0805C9F4F821B71
:1006300091098F739927089581E891E00E94100332
:1006400021E0892B09F420E0822F089580E090E0DA
:10065000892B29F00E941C0381110C94000008953D
:10066000FC01A48DA80FB92FB11DA35ABF4F2C9127
:10067000848D90E001968F739927848FA689B7891E
:100680002C93A089B1898C91837080648C93938D15
:10069000848D981306C00288F389E02D80818F7DB8
:1006A00080830895EF92FF920F931F93CF93DF9370
:1006B000EC0181E0888F9B8D8C8D98131AC0E8899E
:1006C000F989808185FF15C09FB7F894EE89FF896D
:1006D0006083E889F98980818370806480839FBF0B
:1006E00081E090E0DF91CF911F910F91FF90EF900B
:1006F0000895F62E0B8D10E00F5F1F4F0F7311271B
:10070000E02E8C8D8E110CC00FB607FCFACFE88955
:10071000F989808185FFF5CFCE010E943003F1CFAA
:10072000EB8DEC0FFD2FF11DE35AFF4FF0829FB7C9
:10073000F8940B8FEA89FB8980818062CFCFCF93B9
:10074000DF93EC01888D8823B9F0AA89BB89E889F9
:10075000F9898C9185FD03C0808186FD0DC00FB69F
:1007600007FCF7CF8C9185FFF2CF808185FFEDCF1D
:10077000CE010E943003E9CFDF91CF910895089513
:1007800090E080E00895CF93DF93EC0160E08E81EC
:100790000E94ED0061E08E810E94ED0060E08E819C
:1007A0000E94ED008BE891E00197F1F7DF91CF9186
:1007B0000895CF92DF92EF92FF920F931F93CF9302
:1007C000DF936C017C0187E0E80EF11CD0E0C0E013
:1007D000062F10E0B8010C2E02C0759567950A949B
:1007E000E2F76170F70181917F010E94ED0021968F
:1007F000C430D10579F7C601DF91CF911F910F91D8
:10080000FF90EF90DF90CF900C94C303CF92DF92D4
:10081000EF92FF920F931F93CF93DF93EC01F62E8D
:10082000642F8C810E94ED008D818F3F19F060E074
:100830000E94ED000F2D10E08F8584FF25C06E0112
:1008400087E0C80ED11CF12CE12CB8010E2C02C09F
:10085000759567950A94E2F76170F60181916F01D1
:100860000E94ED00FFEFEF1AFF0A88E0E816F1049E
:1008700061F7CE01DF91CF911F910F91FF90EF9023
:10088000DF90CF900C94C303B80184E07595679511
:100890008A95E1F7CE010E94D9036F2DCE01DF9139
:1008A000CF911F910F91FF90EF90DF90CF900C941C
:1008B000D90340E0682F81E392E00C940604CF93C3
:1008C000DF93823029F49091400298609093400227
:1008D000809344021092450280E48093460280E1B6
:1008E0008093470280E58093480261E08091350261
:1008F0000E941B01809136028F3F19F061E00E9437
:100900001B0161E0809137020E941B01C1E3D2E02C
:100910009E01215332408091400284FD0BC084E04F
:1009200090E021962817390744F461E08E810E94F7
:100930001B01EECF88E090E0F4CF8BE39DE00197C0
:10094000F1F760E0809135020E94ED0060E0809157
:1009500037020E94ED00809136028F3F19F060E06F
:100960000E94ED008091400284FD39C063E081E384
:1009700092E00E94D903CBE4D6E4CE010197F1F7CF
:1009800063E081E392E00E94D9032197F1F763E0ED
:1009900081E392E00E94D90383E592E00197F1F7A9
:1009A00062E081E392E00E94D9038091400280627C
:1009B0000E94590484E0809341028CE00E94590413
:1009C00081E00E9459048BE39FE10197F1F782E0F7
:1009D0008093420286E0DF91CF910C9459048062AB
:1009E0000E9459048BE496E40197F1F7809140024C
:1009F00080620E94590483E592E00197F1F78091AB
:100A0000400280620E945904D0CF41E00E94060457
:100A100081E090E00895FB0101900020E9F7319713
:100A2000AF01461B570BDC01ED91FC910280F38175
:100A3000E02D09948F929F92AF92BF92EF92FF9216
:100A40000F931F93CF93DF93CDB7DEB7A1970FB668
:100A5000F894DEBF0FBECDBF7C01FA01CB0119A215
:100A6000223008F42AE08E010F5D1F4F822E912C58
:100A7000B12CA12CBF01A50194010E94C70BF90163
:100A8000CA016A300CF5605DD8016E938D01232B8D
:100A9000242B252B79F790E080E0109721F0BD0101
:100AA000C7010E940B05A1960FB6F894DEBF0FBEDA
:100AB000CDBFDF91CF911F910F91FF90EF90BF902D
:100AC000AF909F908F900895695CDECF2F923F92F8
:100AD0004F925F926F927F928F929F92AF92BF924E
:100AE000CF92DF92EF92FF921F93CF93DF93EC01AF
:100AF0006A017B01722EAB019601CB01B6010E9407
:100B0000C20B6EE171E0811126C046015701E894E5
:100B1000B7F82FEF3FEF4FE75FE7C501B4010E9441
:100B2000C20B81110CC02FEF3FEF4FE75FE7C5010C
:100B3000B4010E94F80962E271E0181664F02FEF28
:100B40003FEF4FE75FE4C701B6010E94500B181654
:100B5000B4F466E271E0CE01DF91CF911F91FF9076
:100B6000EF90DF90CF90BF90AF909F908F907F904D
:100B70006F905F904F903F902F900C940B052FEF4C
:100B80003FEF4FE75FECC701B6010E94F80987FD10
:100B9000E0CF20E030E0A901C701B6010E94F809CA
:100BA000312C212C87FF0DC0E881F9810190F08163
:100BB000E02D6DE2CE0109951C01F7FAF094F7F8EB
:100BC000F09410E060E070E080E09FE3711641F087
:100BD00020E030E040E251E40E94FD091F5FF6CFC3
:100BE000A70196010E948C092B013C010E946F0A0B
:100BF0004B015C012AE0BC01A401CE010E941A0550
:100C00007C01E20CF31C1123E1F1C501B4010E9447
:100C10009E0A9B01AC01C301B2010E948B094B01EA
:100C20005C01E881F9810190F081E02D6EE2CE0156
:100C30000995E80EF91E115020F120E030E040E265
:100C400051E4C501B4010E94550B2B013C010E94E7
:100C50006F0A4B01B12CA12C2AE0B501A401CE01F1
:100C60000E941A05E80EF91EC501B4010E949E0AF1
:100C70009B01AC01C301B2010E948B094B015C01D5
:100C8000DACFC701DF91CF911F91FF90EF90DF90F6
:100C9000CF90BF90AF909F908F907F906F905F901C
:100CA0004F903F902F9008951F920F920FB60F9282
:100CB00011242F933F938F939F93AF93BF93809172
:100CC0007D0190917E01A0917F01B09180013091D2
:100CD000780123E0230F2D3758F50196A11DB11D92
:100CE0002093780180937D0190937E01A0937F01F2
:100CF000B09380018091790190917A01A0917B015C
:100D0000B0917C010196A11DB11D80937901909352
:100D10007A01A0937B01B0937C01BF91AF919F9129
:100D20008F913F912F910F900FBE0F901F901895AC
:100D300026E8230F0296A11DB11DD2CF1F920F925C
:100D40000FB60F9211242F933F934F935F936F939E
:100D50007F938F939F93AF93BF93EF93FF9381E81C
:100D600091E00E943003FF91EF91BF91AF919F916D
:100D70008F917F916F915F914F913F912F910F9044
:100D80000FBE0F901F9018951F920F920FB60F92E3
:100D900011242F938F939F93EF93FF93E0919101F1
:100DA000F09192018081E0919701F091980182FD8C
:100DB0001BC0908180919A018F5F8F7320919B015E
:100DC000821741F0E0919A01F0E0EF57FE4F958FC6
:100DD00080939A01FF91EF919F918F912F910F90A6
:100DE0000FBE0F901F9018958081F4CFCF93E1E84C
:100DF000F1E01382128288EE93E0A0E0B0E08483F9
:100E00009583A683B78384E091E09183808385EC0A
:100E100090E09587848784EC90E09787868780ECC4
:100E200090E0918B808B81EC90E0938B828B82ECB5
:100E300090E0958B848B86EC90E0978B868B118E5F
:100E4000128E138E148EE1E3F2E01382128286E199
:100E500091E0918380838CE084838FEF8583CBE066
:100E6000C68385E0878384E0808783E0818782E092
:100E700082871386148615861686178681E00E945F
:100E80005F04AEE1B2E08EE015968C93159716964E
:100E9000CC931697ECEBF0E0E4911796EC93179750
:100EA000E8EAF0E0E4911896EC93189740E85EE3E6
:100EB00060E070E01D964D935D936D937C93509729
:100EC000CF910895789484B5826084BD84B58160A3
:100ED00084BD85B5826085BD85B5816085BD809105
:100EE0006E00816080936E0010928100809181007D
:100EF0008260809381008091810081608093810075
:100F0000809180008160809380008091B100846036
:100F10008093B1008091B00081608093B000809197
:100F20007A00846080937A0080917A008260809356
:100F30007A0080917A00816080937A0080917A00B3
:100F4000806880937A001092C100E0919101F09145
:100F5000920182E08083E0918D01F0918E011082F8
:100F6000E0918F01F09190018FEC808310929901B4
:100F7000E0919501F091960186E08083E0919301E4
:100F8000F0919401808180618083E0919301F091E0
:100F90009401808188608083E0919301F0919401B5
:100FA000808180688083E0919301F0919401808139
:100FB0008F7D808362E0809123020E941B012FB706
:100FC000F89480917D0190917E01A0917F01B09174
:100FD00080012FBF805D9740A109B109809327024E
:100FE00090932802A0932902B0932A0287E380936A
:100FF000300282E00E945F0462E088E00E941B01F0
:101000006AE271E081E392E00E940B0560ED77E017
:1010100080E090E00E94710146EB242E40E0342EE7
:1010200052EA852E50E0952E0BE31FE160E0A62EDC
:1010300060E0B62E0E94A301882349F0809124022B
:101040008B3028F08D3050F085518230C0F1412C2A
:10105000512C30EC632E3FE7732E1EC060911F02AF
:1010600070E090E080E00E94A00A2DEC3CEC4CEC9B
:101070005DE30E94550B6B017C0160911E0270E0E4
:1010800090E080E00E94A00A9B01AC01C701B6017C
:101090000E948C092B013C010E94A301882341F08E
:1010A000809124028C3009F40CC1D8F48B3091F17A
:1010B000C12CD12C90ECE92E9FE7F92E55C0609100
:1010C0001E0270911F0276276727762790E080E046
:1010D0000E949E0A2DEC3CEC4CEC5DE30E94550B0B
:1010E000D9CF8551823020F7C09120026C2F70E05B
:1010F000762F662766277F7780912102682B90E004
:1011000080E00E949E0A2DEC3CEC4CEC5DE30E94DA
:10111000550BF3C06091200270E090E080E00E94E7
:101120009E0A6B017C01C0912102C7FF0AC0AC017D
:101130009B0160E070E080E89FEB0E948B096B01EF
:101140007C01CF706C2F70E090E080E00E94A00ADC
:101150002DEC3CEC4CEC5DE30E94550BA701960195
:101160000E948C096B017C01E4E8F0E08491F101BC
:10117000D491F401C491CC2309F4C8C081110E9418
:10118000C400EC2FF0E0EE0FFF1FE057FF4FA591DA
:10119000B4918C91D82391E080E009F490E0C92FBC
:1011A000D82F68E371E081E891E00E940B0522E00E
:1011B000B701A60181E891E00E94660561E471E053
:1011C00081E891E00E940B0522E0B301A20181E8D1
:1011D00091E00E94660568E471E081E891E00E9478
:1011E0000B05AE01F1E04F27D42FD170052E000C76
:1011F000660B770B2AE081E891E00E941A056EE405
:1012000071E081E891E00E940B0581E00E945904A1
:10121000C8010197F1F7E1E0809144028111E0E01B
:10122000E195F0E0EF5CFD4F848980680E945904ED
:1012300061E571E081E392E00E940B0522E0B701D5
:10124000A60181E392E00E94660564E571E081E316
:1012500092E00E940B0522E0B301A20181E392E03B
:101260000E9466056AE571E081E392E00E940B0549
:10127000E0914402E23008F04CC0E150F0E0EF5C55
:10128000FD4F848980680E9459046CE571E0D1119A
:1012900002C06AE671E081E392E00E940B0560ED16
:1012A00077E080E090E00E947101A114B10409F49C
:1012B000C1CE0E941C03882309F4BCCE0E9400000A
:1012C000B9CEC09120026C2F70E090E080E00E94C7
:1012D0009E0A6B017C01609121026F7070E090E0CA
:1012E00080E00E94A00A2DEC3CEC4CEC5DE30E94F7
:1012F000550BA70196010E948C096B017C01C7FF69
:1013000033CFF7FAF094F7F8F0942ECFD0E0C0E0A6
:1013100048CFE1E0B3CF5058BB27AA270E94A309CA
:101320000C94160B0E94080B38F00E940F0B20F053
:1013300039F49F3F19F426F40C94050B0EF4E09554
:10134000E7FB0C94FF0AE92F0E94270B58F3BA170A
:10135000620773078407950720F079F4A6F50C94CB
:10136000490B0EF4E0950B2EBA2FA02D0B01B901FD
:1013700090010C01CA01A0011124FF27591B99F00B
:10138000593F50F4503E68F11A16F040A22F232F17
:10139000342F4427585FF3CF469537952795A79567
:1013A000F0405395C9F77EF41F16BA0B620B730B0E
:1013B000840BBAF09150A1F0FF0FBB1F661F771F7F
:1013C000881FC2F70EC0BA0F621F731F841F48F434
:1013D000879577956795B795F7959E3F08F0B0CFBD
:1013E0009395880F08F09927EE0F979587950895A4
:1013F0000E94DB0A08F481E008950E94110A0C940F
:10140000160B0E940F0B58F00E94080B40F029F4B5
:101410005F3F29F00C94FF0A51110C944A0B0C9475
:10142000050B0E94270B68F39923B1F3552391F321
:10143000951B550BBB27AA2762177307840738F043
:101440009F5F5F4F220F331F441FAA1FA9F335D0A0
:101450000E2E3AF0E0E832D091505040E695001C54
:10146000CAF72BD0FE2F29D0660F771F881FBB1F0E
:10147000261737074807AB07B0E809F0BB0B802DEC
:10148000BF01FF2793585F4F3AF09E3F510578F018
:101490000C94FF0A0C944A0B5F3FE4F3983ED4F39C
:1014A000869577956795B795F7959F5FC9F7880FEC
:1014B000911D9695879597F90895E1E0660F771F3E
:1014C000881FBB1F621773078407BA0720F0621BCF
:1014D000730B840BBA0BEE1F88F7E09508950E94FA
:1014E0002F0B88F09F5798F0B92F9927B751B0F07C
:1014F000E1F0660F771F881F991F1AF0BA95C9F798
:1015000014C0B13091F00E94490BB1E008950C94E1
:10151000490B672F782F8827B85F39F0B93FCCF394
:10152000869577956795B395D9F73EF49095809514
:10153000709561957F4F8F4F9F4F0895E89409C034
:1015400097FB3EF490958095709561957F4F8F4FF6
:101550009F4F9923A9F0F92F96E9BB279395F6950C
:10156000879577956795B795F111F8CFFAF4BB0F8A
:1015700011F460FF1BC06F5F7F4F8F4F9F4F16C0EE
:10158000882311F096E911C0772321F09EE8872F78
:10159000762F05C0662371F096E8862F70E060E034
:1015A0002AF09A95660F771F881FDAF7880F9695AD
:1015B000879597F90895990F0008550FAA0BE0E851
:1015C000FEEF16161706E807F907C0F01216130605
:1015D000E407F50798F0621B730B840B950B39F445
:1015E0000A2661F0232B242B252B21F408950A26AB
:1015F00009F4A140A6958FEF811D811D089597F9EB
:101600009F6780E870E060E008959FEF80EC0895A8
:1016100000240A94161617061806090608950024D1
:101620000A9412161306140605060895092E03944B
:10163000000C11F4882352F0BB0F40F4BF2B11F4BF
:1016400060FF04C06F5F7F4F8F4F9F4F089557FD1E
:101650009058440F551F59F05F3F71F04795880F20
:1016600097FB991F61F09F3F79F0879508951216B7
:1016700013061406551FF2CF4695F1DF08C0161663
:1016800017061806991FF1CF869571056105089414
:101690000895E894BB2766277727CB0197F908952B
:1016A0000E94DB0A08F48FEF08950E94680B0C94E7
:1016B000160B0E94080B38F00E940F0B20F09523A8
:1016C00011F00C94FF0A0C94050B11240C944A0B96
:1016D0000E94270B70F3959FC1F3950F50E0551FA3
:1016E000629FF001729FBB27F00DB11D639FAA2777
:1016F000F00DB11DAA1F649F6627B00DA11D661FC6
:10170000829F2227B00DA11D621F739FB00DA11DE6
:10171000621F839FA00D611D221F749F3327A00DA0
:10172000611D231F849F600D211D822F762F6A2F3C
:1017300011249F5750409AF0F1F088234AF0EE0FA1
:10174000FF1FBB1F661F771F881F91505040A9F7CE
:101750009E3F510580F00C94FF0A0C944A0B5F3FAA
:10176000E4F3983ED4F3869577956795B795F7950A
:10177000E7959F5FC1F7FE2B880F911D9695879582
:1017800097F908950E94DB0A880B990B0895A1E24E
:101790001A2EAA1BBB1BFD010DC0AA1FBB1FEE1FEB
:1017A000FF1FA217B307E407F50720F0A21BB30B36
:1017B000E40BF50B661F771F881F991F1A9469F7B2
:1017C00060957095809590959B01AC01BD01CF010E
:1017D0000895EE0FFF1F0590F491E02D0994F89401
:0217E000FFCF39
:1017E200000000005203B202DF029F031003EE0268
:1017F2000203000000000505B202C003BF036E61D0
:101802006E00696E66006F7666004D6F6E69746F6A
:1018120072696E672E2E2E004E48494554444F3A47
:10182200007C444F414D3A007C4D55413A000D0A2F
:1018320000543A00204320483A0025002A2A205228
:1018420041494E494E47202A2A0053756E6E79202F
:081852004461792020202000F0
:00000001FF
