:100000000C945E000C9486000C9486000C94860080
:100010000C9486000C9486000C9486000C94860048
:100020000C9486000C9486000C9486000C94860038
:100030000C9486000C9486000C9486000C94860028
:100040000C9404050C9486000C9474050C944E05D5
:100050000C9486000C9486000C9486000C94860008
:100060000C9486000C9486000000000024002700F9
:100070002A0000000000250028002B0004040404CE
:100080000404040402020202020203030303030342
:10009000010204081020408001020408102001021F
:1000A00004081020000000080002010000030407FB
:1000B0000000000000000000A605420911241FBE38
:1000C000CFEFD8E0DEBFCDBF11E0A0E0B1E0E4E9C2
:1000D000FDE102C005900D92AC38B107D9F722E0DE
:1000E000ACE8B1E001C01D92A635B207E1F710E01F
:1000F000CDE5D0E004C02197FE010E94C50CCC35AF
:10010000D107C9F70E945D060C94BD0E0C94000047
:1001100090E0FC01EC55FF4F2491FC01E057FF4FAC
:100120003491FC01E458FF4FE491EE23C9F02223FF
:1001300039F0233001F1A8F4213019F1223029F1EE
:10014000F0E0EE0FFF1FEE58FF4FA591B4918FB76F
:10015000F894EC91611126C030953E233C938FBFFB
:1001600008952730A9F02830C9F0243049F780914C
:1001700080008F7D03C0809180008F778093800006
:10018000DFCF84B58F7784BDDBCF84B58F7DFBCF88
:100190008091B0008F778093B000D2CF8091B00073
:1001A0008F7DF9CF3E2BDACFCF93DF9390E0FC0128
:1001B000E057FF4F249184589F4FFC01849188237E
:1001C000D1F090E0880F991FFC01E859FF4FA591ED
:1001D000B491FC01EE58FF4FC591D491623071F497
:1001E0009FB7F8943C91822F809583238C93E8816C
:1001F0002E2B28839FBFDF91CF9108958FB7F8945E
:10020000EC912E2B2C938FBFF6CF3FB7F8948091B3
:10021000930190919401A0919501B091960126B51A
:10022000A89B05C02F3F19F00196A11DB11D3FBF2E
:10023000BA2FA92F982F8827BC01CD01620F711DFD
:10024000811D911D42E0660F771F881F991F4A95F7
:10025000D1F708958F929F92AF92BF92CF92DF9283
:10026000EF92FF920E9405014B015C0180EDC82EC8
:1002700087E0D82EE12CF12C0E940501681979093C
:100280008A099B09683E734081059105A8F321E026
:10029000C21AD108E108F10888EE880E83E0981EA2
:1002A000A11CB11CC114D104E104F10429F7FF9091
:1002B000EF90DF90CF90BF90AF909F908F90089578
:1002C000AF92BF92CF92DF92EF92FF920F931F9364
:1002D000CF93DF936C017B018B01040F151FEB01A2
:1002E0005E01AE18BF08C017D10759F06991D60159
:1002F000ED91FC910190F081E02DC6010995892BCB
:1003000079F7C501DF91CF911F910F91FF90EF9089
:10031000DF90CF90BF90AF900895FC01538D448D36
:10032000252F30E0842F90E0821B930B541710F0A0
:10033000CF96089501970895FC01918D828D9817AD
:1003400061F0A28DAE0FBF2FB11D5D968C91928D85
:100350009F5F9F73928F90E008958FEF9FEF0895B6
:10036000FC01918D828D981731F0828DE80FF11D7F
:10037000858D90E008958FEF9FEF0895FC01918D9A
:10038000228D892F90E0805C9F4F821B91098F7393
:100390009927089587E991E00E94BE0121E0892B09
:1003A00009F420E0822F089580E090E0892B29F065
:1003B0000E94CA0181110C9400000895FC01A48DD3
:1003C000A80FB92FB11DA35ABF4F2C91848D90E077
:1003D00001968F739927848FA689B7892C93A0895A
:1003E000B1898C91837080648C93938D848D9813E4
:1003F00006C00288F389E02D80818F7D8083089577
:10040000EF92FF920F931F93CF93DF93EC0181E064
:10041000888F9B8D8C8D98131AC0E889F98980810B
:1004200085FF15C09FB7F894EE89FF896083E8893E
:10043000F98980818370806480839FBF81E090E030
:10044000DF91CF911F910F91FF90EF900895F62EBD
:100450000B8D10E00F5F1F4F0F731127E02E8C8D57
:100460008E110CC00FB607FCFACFE889F98980819C
:1004700085FFF5CFCE010E94DE01F1CFEB8DEC0FB1
:10048000FD2FF11DE35AFF4FF0829FB7F8940B8FB9
:10049000EA89FB8980818062CFCFCF93DF93EC0123
:1004A000888D8823B9F0AA89BB89E889F9898C915C
:1004B00085FD03C0808186FD0DC00FB607FCF7CF18
:1004C0008C9185FFF2CF808185FFEDCFCE010E9418
:1004D000DE01E9CFDF91CF910895089590E080E0AB
:1004E0000895CF93DF93EC0160E08E810E94880035
:1004F00061E08E810E94880060E08E810E94880009
:100500008BE891E00197F1F7DF91CF910895CF92B9
:10051000DF92EF92FF920F931F93CF93DF936C01C3
:100520007C0187E0E80EF11CD0E0C0E0062F10E06F
:10053000B8010C2E02C0759567950A94E2F76170B8
:10054000F70181917F010E9488002196C430D10576
:1005500079F7C601DF91CF911F910F91FF90EF9036
:10056000DF90CF900C947102CF92DF92EF92FF92C6
:100570000F931F93CF93DF93EC01F62E642F8C81A2
:100580000E9488008D818F3F19F060E00E948800F2
:100590000F2D10E08F8584FF25C06E0187E0C80E07
:1005A000D11CF12CE12CB8010E2C02C07595679579
:1005B0000A94E2F76170F60181916F010E94880050
:1005C000FFEFEF1AFF0A88E0E816F10461F7CE01A9
:1005D000DF91CF911F910F91FF90EF90DF90CF901F
:1005E0000C947102B80184E0759567958A95E1F7DE
:1005F000CE010E9487026F2DCE01DF91CF911F9116
:100600000F91FF90EF90DF90CF900C94870240E025
:10061000682F8AE392E00C94B402CF93DF93823088
:1006200029F49091490298609093490280934D0279
:1006300010924E0280E480934F0280E1809350023A
:1006400080E58093510261E080913E020E94D400D7
:1006500080913F028F3F19F061E00E94D40061E079
:10066000809140020E94D400CAE3D2E09E012A5346
:1006700032408091490284FD0BC084E090E02196D5
:100680002817390744F461E08E810E94D400EECF30
:1006900088E090E0F4CF8BE39DE00197F1F760E014
:1006A00080913E020E94880060E0809140020E949A
:1006B000880080913F028F3F19F060E00E9488001F
:1006C0008091490284FD39C063E08AE392E00E9490
:1006D0008702CBE4D6E4CE010197F1F763E08AE329
:1006E00092E00E9487022197F1F763E08AE392E0AB
:1006F0000E94870283E592E00197F1F762E08AE3C6
:1007000092E00E9487028091490280620E94070362
:1007100084E080934A028CE00E94070381E00E94FB
:1007200007038BE39FE10197F1F782E080934B028F
:1007300086E0DF91CF910C94070380620E9407034B
:100740008BE496E40197F1F78091490280620E9460
:10075000070383E592E00197F1F7809149028062F7
:100760000E940703D0CF41E00E94B40281E090E0F4
:100770000895FB0101900020E9F73197AF01461B76
:10078000570BDC01ED91FC910280F381E02D09947F
:100790008F929F92AF92BF92EF92FF920F931F930F
:1007A000CF93DF93CDB7DEB7A1970FB6F894DEBF36
:1007B0000FBECDBF7C01FA01CB0119A2223008F493
:1007C0002AE08E010F5D1F4F822E912CB12CA12C9F
:1007D000BF01A50194010E947C0BF901CA016A3096
:1007E0000CF5605DD8016E938D01232B242B252BF6
:1007F00079F790E080E0109721F0BD01C7010E94D9
:10080000B903A1960FB6F894DEBF0FBECDBFDF913E
:10081000CF911F910F91FF90EF90BF90AF909F905D
:100820008F900895695CDECF2F923F924F925F9236
:100830006F927F928F929F92AF92BF92CF92DF92F0
:10084000EF92FF921F93CF93DF93EC016A017B013C
:10085000722EAB019601CB01B6010E94C00C60E381
:1008600071E0811126C046015701E894B7F82FEFD7
:100870003FEF4FE75FE7C501B4010E94C00C811153
:100880000CC02FEF3FEF4FE75FE7C501B4010E94B7
:10089000EF0964E371E0181664F02FEF3FEF4FE7C4
:1008A0005FE4C701B6010E94BB0C1816B4F468E3FC
:1008B00071E0CE01DF91CF911F91FF90EF90DF901B
:1008C000CF90BF90AF909F908F907F906F905F90F0
:1008D0004F903F902F900C94B9032FEF3FEF4FE7CD
:1008E0005FECC701B6010E94EF0987FDE0CF20E071
:1008F00030E0A901C701B6010E94EF09312C212C7B
:1009000087FF0DC0E881F9810190F081E02D6DE253
:10091000CE0109951C01F7FAF094F7F8F09410E075
:1009200060E070E080E09FE3711641F020E030E08D
:1009300040E251E40E941A0C1F5FF6CFA701960116
:100940000E94AE0B2B013C010E948C0C4B015C0100
:100950002AE0BC01A401CE010E94C8037C01E20C84
:10096000F31C1123E1F1C501B4010E94F4099B01BC
:10097000AC01C301B2010E94AD0B4B015C01E881E7
:10098000F9810190F081E02D6EE2CE010995E80E2B
:10099000F91E115020F120E030E040E251E4C501A1
:1009A000B4010E94550A2B013C010E948C0C4B01A2
:1009B000B12CA12C2AE0B501A401CE010E94C803EC
:1009C000E80EF91EC501B4010E94F4099B01AC01B7
:1009D000C301B2010E94AD0B4B015C01DACFC7012C
:1009E000DF91CF911F91FF90EF90DF90CF90BF905C
:1009F000AF909F908F907F906F905F904F903F90BF
:100A00002F9008950C94B9031F920F920FB60F9276
:100A100011242F933F938F939F93AF93BF93809114
:100A20008F0190919001A0919101B091920130912C
:100A30008E0123E0230F2D3758F50196A11DB11D1E
:100A400020938E0180938F0190939001A093910148
:100A5000B09392018091930190919401A09195019E
:100A6000B09196010196A11DB11D809393019093C1
:100A70009401A0939501B0939601BF91AF919F917E
:100A80008F913F912F910F900FBE0F901F9018954F
:100A900026E8230F0296A11DB11DD2CF1F920F92FF
:100AA0000FB60F9211242F933F934F935F936F9341
:100AB0007F938F939F93AF93BF93EF93FF9387E9B8
:100AC00091E00E94DE01FF91EF91BF91AF919F9164
:100AD0008F917F916F915F914F913F912F910F90E7
:100AE0000FBE0F901F9018951F920F920FB60F9286
:100AF00011242F938F939F93EF93FF93E091A7017E
:100B0000F091A8018081E091AD01F091AE0182FDEC
:100B10001BC090818091B0018F5F8F732091B101D4
:100B2000821741F0E091B001F0E0E956FE4F958F59
:100B30008093B001FF91EF919F918F912F910F9032
:100B40000FBE0F901F9018958081F4CF10929A01DC
:100B50001092990188EE93E0A0E0B0E080939B01B1
:100B600090939C01A0939D01B0939E0186E191E03A
:100B7000909398018093970185EC90E09093A40165
:100B80008093A30184EC90E09093A6018093A5014B
:100B900080EC90E09093A8018093A70181EC90E015
:100BA0009093AA018093A90182EC90E09093AC010C
:100BB0008093AB0186EC90E09093AE018093AD0101
:100BC0001092B0011092B1011092B2011092B301D3
:100BD00010923D0210923C0288E291E090933B0219
:100BE00080933A028CE080933E028FEF80933F0225
:100BF0008BE08093400285E08093410284E0809303
:100C0000420283E08093430282E080934402109288
:100C1000450210924602109247021092480210922A
:100C2000490281E00E940D031092350210923402B5
:100C30001092370210923602109239021092380246
:100C400066E070E090E080E00E94F00D009701F116
:100C5000909335028093340225E030E030933702E0
:100C6000209336022091380230913902232B11F45F
:100C7000FC01108285E090E0909339028093380265
:100C80006CE371E080913402909135020C94B60EC1
:100C90008091340290913502009711F00E94670D07
:100CA00010923502109234021092390210923802DA
:100CB00010923702109236020895789484B58260BB
:100CC00084BD84B5816084BD85B5826085BD85B5F0
:100CD000816085BD80916E00816080936E0010926E
:100CE00081008091810082608093810080918100E9
:100CF000816080938100809180008160809380007A
:100D00008091B10084608093B1008091B0008160D7
:100D10008093B00080917A00846080937A00809103
:100D20007A00826080937A0080917A00816080935B
:100D30007A0080917A00806880937A001092C100D6
:100D4000E091A701F091A80182E08083E091A301E6
:100D5000F091A4011082E091A501F091A6018FEC21
:100D600080831092AF01E091AB01F091AC0186E07D
:100D70008083E091A901F091AA0180818061808344
:100D8000E091A901F091AA01808188608083E091BF
:100D9000A901F091AA01808180688083E091A90176
:100DA000F091AA0180818F7D808382E00E940D03F3
:100DB00062E088E00E94D40085E480937C0080910A
:100DC0007A00806480937A0080917A0086FDFCCF5F
:100DD0006091780070917900072E000C880B990BB8
:100DE000611571058105910511F00E94E6090E94C7
:100DF00097092AEF30E040E050E00E94130B6C545A
:100E00007F4F8F4F9F4F0E94F60920E030E040E275
:100E100051E40E941A0C60930401709305018093C1
:100E20000601909307010E94970924EF31E040E00A
:100E300050E00E94130B60577E4F8F4F9F4F0E94D0
:100E4000F60920E030E040E251E40E941A0C609381
:100E500000017093010180930201909303010E94AD
:100E6000970922E030E040E050E00E94130B7093BD
:100E70008D0160938C0162E471E08AE392E00E944C
:100E800002050E942A01C1E0D0E04DE3842E912C9E
:100E9000A12CB12C56E9452E512C612C712C6BE301
:100EA000262E6FE1362E00E010E00E94970925E61D
:100EB00030E040E050E00E94130B62537109810959
:100EC00091090E94F60920E030E048EC52E40E94CB
:100ED0001A0C2091040130910501409106015091B6
:100EE00007010E94AE0B6B017C0120E030E040E77F
:100EF00051E40E94EF0987FD91C1C0920401D09294
:100F00000501E0920601F092070120E030E040E2A6
:100F100052E4609104017091050180910601909165
:100F200007010E94BB0C181664F480E090E0A0E278
:100F3000B2E48093040190930501A0930601B0935D
:100F400007010E94970924E630E040E050E00E944B
:100F5000130B65307105810591055CF480918C015E
:100F600090918D019E01281B390B30938D012093A8
:100F70008C0120E030E040EA51E46091040170917E
:100F8000050180910601909107010E94AD0B20E0C0
:100F900030E040EC5FE30E94550A9B01AC0160E049
:100FA00070E080EA92E40E94AD0B6B017C0120E0CE
:100FB00030E040EF51E40E94EF0987FD3CC120E0A2
:100FC00030E04EEB52E4C701B6010E94BB0C18168C
:100FD00034F4C12CD12C3EEBE32E32E4F32E80917D
:100FE0008C0190918D01019709F02CC10E94970905
:100FF000A30192010E94130B6E5A7C4F8F4F9F4F9B
:101000000E94F60920E030E040E251E40E941A0C10
:101010006B017C0120E030E040EA51E40E94EF09DE
:1010200087FD27C120E030E048EC52E4C701B6015B
:101030000E94BB0C181634F4C12CD12C98ECE92E6C
:1010400092E4F92EC0920001D0920101E0920201D7
:10105000F092030160E571E087E991E00E940205EA
:1010600040913802509139026091340270913502FA
:1010700087E991E00E9460016AE571E087E991E00B
:101080000E94020540910401509105016091060102
:101090007091070121E087E991E00E94140463E662
:1010A00071E087E991E00E940205409100015091B2
:1010B0000101609102017091030120E087E991E054
:1010C0000E9414046AE671E087E991E00E9402053B
:1010D000C0908C01D0908D010D2C000CEE08FF0803
:1010E0002AE0B701A601F7FE0DC06DE287E991E0A5
:1010F0000E94000244275527BA014C195D096E0968
:101100007F092AE087E991E00E94C80360E771E067
:1011100087E991E00E94B90381E00E940703C101C1
:101120000197F1F7E1E080914D028111E0E0E19556
:10113000F0E0E65CFD4F848980680E9407034091DF
:1011400038025091390260913402709135028AE37D
:1011500092E00E946001E0914D02E23008F090C000
:10116000E150F0E0E65CFD4F848980680E9407034F
:1011700063E771E08AE392E00E9402054091040176
:1011800050910501609106017091070121E08AE309
:1011900092E00E94140466E771E08AE392E00E9404
:1011A000020540910001509101016091020170918E
:1011B000030120E08AE392E00E9414046BE771E0EF
:1011C0008AE392E00E94020580918C0190918D014A
:1011D00062E871E0019781F4E1E080914D028111B4
:1011E000E0E0E195F0E0E65CFD4F8489855F806892
:1011F0000E9407036DE771E08AE392E00E94020516
:101200000E942A010115110509F44FCE0E94CA015E
:10121000882309F44ACE0E94000047CE80E090E087
:10122000A0E7B1E48093040190930501A093060127
:10123000B09307016ACEC12CD12C20EFE22E21E41D
:10124000F22ECDCE0E949709A50194010E94130BA6
:101250006E517109810991090E94F60920E030E080
:1012600040E251E40E941A0CA70196010E94AE0BC5
:10127000CFCEC12CD12C80EAE82E81E4F82EE2CE2C
:10128000E1E06FCF8091340290913502009711F028
:101290000C94670D08958F929F92AF92BF92CF9258
:1012A000DF92EF92FF92CF93DF93EC016881798117
:1012B0008A819B81611571058105910521F464E2A4
:1012C00079ED8BE597E02DE133EF41E050E00E94AE
:1012D000130B49015A019B01AC01A7EAB1E40E943A
:1012E000320B6B017C01ACEEB4EFA50194010E94BE
:1012F000400BC60ED71EE81EF91EF7FE06C081E0A1
:10130000C81AD108E10880E8F80AC882D982EA82BE
:10131000FB82C701B6019F77DF91CF91FF90EF90DD
:10132000DF90CF90BF90AF909F908F9008958F9255
:101330009F92AF92BF92CF92DF92EF92FF92609115
:1013400008017091090180910A0190910B016115CA
:1013500071058105910521F464E279ED8BE597E053
:101360002DE133EF41E050E00E94130B49015A0197
:101370009B01AC01A7EAB1E40E94320B6B017C0136
:10138000ACEEB4EFA50194010E94400BC60ED71E2F
:10139000E81EF91EF7FE06C081E0C81AD108E10870
:1013A00080E8F80AC0920801D0920901E0920A018F
:1013B000F0920B01C701B6019F77FF90EF90DF908D
:1013C000CF90BF90AF909F908F9008956093080149
:1013D0007093090180930A0190930B0108950E9474
:1013E000310A08F481E00895E89409C097FB3EF4BF
:1013F00090958095709561957F4F8F4F9F4F992362
:10140000A9F0F92F96E9BB279395F69587957795DF
:101410006795B795F111F8CFFAF4BB0F11F460FF9F
:101420001BC06F5F7F4F8F4F9F4F16C0882311F0F7
:1014300096E911C0772321F09EE8872F762F05C00B
:10144000662371F096E8862F70E060E02AF09A95A6
:10145000660F771F881FDAF7880F9695879597F99B
:101460000895990F0008550FAA0BE0E8FEEF161635
:101470001706E807F907C0F012161306E407F50788
:1014800098F0621B730B840B950B39F40A2661F0FC
:10149000232B242B252B21F408950A2609F4A1409F
:1014A000A6958FEF811D811D08950E94680A0C94F6
:1014B000D90A0E94CB0A38F00E94D20A20F0952364
:1014C00011F00C94C20A0C94C80A11240C940D0B50
:1014D0000E94EA0A70F3959FC1F3950F50E0551FE3
:1014E000629FF001729FBB27F00DB11D639FAA2779
:1014F000F00DB11DAA1F649F6627B00DA11D661FC8
:10150000829F2227B00DA11D621F739FB00DA11DE8
:10151000621F839FA00D611D221F749F3327A00DA2
:10152000611D231F849F600D211D822F762F6A2F3E
:1015300011249F5750409AF0F1F088234AF0EE0FA3
:10154000FF1FBB1F661F771F881F91505040A9F7D0
:101550009E3F510580F00C94C20A0C940D0B5F3F26
:10156000E4F3983ED4F3869577956795B795F7950C
:10157000E7959F5FC1F7FE2B880F911D9695879584
:1015800097F9089597F99F6780E870E060E0089503
:101590009FEF80EC089500240A941616170618068B
:1015A0000906089500240A94121613061406050667
:1015B0000895092E0394000C11F4882352F0BB0FF8
:1015C00040F4BF2B11F460FF04C06F5F7F4F8F4F5B
:1015D0009F4F089557FD9058440F551F59F05F3F96
:1015E00071F04795880F97FB991F61F09F3F79F045
:1015F00087950895121613061406551FF2CF4695C7
:10160000F1DF08C0161617061806991FF1CF869548
:101610007105610508940895E894BB27662777272C
:10162000CB0197F90895052E97FB1EF400940E94B4
:101630002A0B57FD07D00E947C0B07FC03D04EF409
:101640000C942A0B50954095309521953F4F4F4F64
:101650005F4F089590958095709561957F4F8F4F5E
:101660009F4F08950E949E0BA59F900DB49F900DD3
:10167000A49F800D911D11240895B7FF0C94320B87
:101680000E94320B821B930B08952F923F924F9230
:101690005F926F927F928F929F92AF92BF92CF9202
:1016A000DF92EF92FF920F931F93CF93DF93CDB70B
:1016B000DEB7CA1BDB0B0FB6F894DEBF0FBECDBF83
:1016C00009942A88398848885F846E847D848C8454
:1016D0009B84AA84B984C884DF80EE80FD800C815D
:1016E0001B81AA81B981CE0FD11D0FB6F894DEBF40
:1016F0000FBECDBFED010895A1E21A2EAA1BBB1BA0
:10170000FD010DC0AA1FBB1FEE1FFF1FA217B307CD
:10171000E407F50720F0A21BB30BE40BF50B661FE3
:10172000771F881F991F1A9469F7609570958095A7
:1017300090959B01AC01BD01CF010895A29FB0011E
:10174000B39FC001A39F700D811D1124911DB29FF5
:10175000700D811D1124911D08955058BB27AA2793
:101760000E94C50B0C94D90A0E94CB0A38F00E9443
:10177000D20A20F039F49F3F19F426F40C94C80AD9
:101780000EF4E095E7FB0C94C20AE92F0E94EA0AE6
:1017900058F3BA17620773078407950720F079F4A6
:1017A000A6F50C940C0B0EF4E0950B2EBA2FA02D81
:1017B0000B01B90190010C01CA01A0011124FF27FE
:1017C000591B99F0593F50F4503E68F11A16F040F9
:1017D000A22F232F342F4427585FF3CF46953795F8
:1017E0002795A795F0405395C9F77EF41F16BA0BBD
:1017F000620B730B840BBAF09150A1F0FF0FBB1F6B
:10180000661F771F881FC2F70EC0BA0F621F731FB3
:10181000841F48F4879577956795B795F7959E3F10
:1018200008F0B0CF9395880F08F09927EE0F9795A1
:10183000879508950E942E0C0C94D90A0E94D20A12
:1018400058F00E94CB0A40F029F45F3F29F00C9435
:10185000C20A51110C940D0B0C94C80A0E94EA0A9A
:1018600068F39923B1F3552391F3951B550BBB27CF
:10187000AA2762177307840738F09F5F5F4F220F14
:10188000331F441FAA1FA9F335D00E2E3AF0E0E80B
:1018900032D091505040E695001CCAF72BD0FE2F55
:1018A00029D0660F771F881FBB1F261737074807E9
:1018B000AB07B0E809F0BB0B802DBF01FF279358A1
:1018C0005F4F3AF09E3F510578F00C94C20A0C9499
:1018D0000D0B5F3FE4F3983ED4F3869577956795BB
:1018E000B795F7959F5FC9F7880F911D96958795D6
:1018F00097F90895E1E0660F771F881FBB1F6217F5
:1019000073078407BA0720F0621B730B840BBA0BB2
:10191000EE1F88F7E09508950E94F20A88F09F571D
:1019200098F0B92F9927B751B0F0E1F0660F771F03
:10193000881F991F1AF0BA95C9F714C0B13091F0F9
:101940000E940C0BB1E008950C940C0B672F782FBC
:101950008827B85F39F0B93FCCF3869577956795BE
:10196000B395D9F73EF490958095709561957F4F2A
:101970008F4F9F4F08950E94310A08F48FEF08950A
:101980000E94310A880B990B0895EE0FFF1F0590F6
:10199000F491E02D09940F931F93CF93DF9382303E
:1019A000910510F482E090E0E0915402F09155022C
:1019B00030E020E0B0E0A0E0309799F42115310547
:1019C00009F44AC0281B390B24303105D8F58A8127
:1019D0009B816115710589F1FB0193838283FE016F
:1019E00011C0408151810281138148175907E0F0ED
:1019F0004817590799F4109761F012960C931297B3
:101A000013961C933296CF01DF91CF911F910F91C6
:101A100008950093540210935502F4CF2115310517
:101A200051F04217530738F0A901DB019A01BD01BB
:101A3000DF01F801C1CFEF01F9CF909355028093F8
:101A40005402CDCFFE01E20FF31F819391932250F8
:101A5000310939832883D7CF209152023091530224
:101A6000232B41F420910E0130910F01309353024A
:101A70002093520220910C0130910D012115310566
:101A800041F42DB73EB74091100150911101241B34
:101A9000350BE0915202F0915302E217F307A0F4E4
:101AA0002E1B3F0B2817390778F0AC014E5F5F4FB4
:101AB0002417350748F04E0F5F1F50935302409391
:101AC0005202819391939FCFF0E0E0E09CCFCF93BF
:101AD000DF930097E9F0FC01329713821282A09104
:101AE0005402B0915502ED0130E020E01097A1F4CE
:101AF00020813181820F931F209152023091530235
:101B00002817390709F061C0F0935302E09352029D
:101B1000DF91CF910895EA01CE17DF07E8F54A81FA
:101B20005B819E0141155105B1F7E901FB83EA8311
:101B300049915991C40FD51FEC17FD0761F48081BD
:101B400091810296840F951FE90199838883828190
:101B500093819B838A83F0E0E0E012968D919C91C3
:101B600013970097B9F52D913C911197CD010296ED
:101B7000820F931F20915202309153022817390788
:101B800039F6309751F51092550210925402B093E5
:101B90005302A0935202BCCFD383C28340815181B0
:101BA000840F951FC817D90761F44E5F5F4F888176
:101BB0009981480F591F518340838A819B81938368
:101BC00082832115310509F0B0CFF0935502E093DF
:101BD00054029ECFFD01DC01C0CF13821282D7CF09
:101BE000B0E0A0E0E6EFFDE00C94470B8C0100971D
:101BF00051F4CB010E94CB0C8C01C801CDB7DEB7EC
:101C0000E0E10C94630BFC01E60FF71F9C012250EE
:101C10003109E217F30708F49DC0D901CD91DC9199
:101C20001197C617D70798F0C530D10530F3CE010C
:101C300004978617970708F3C61BD70B2297C19303
:101C4000D1936D937C93CF010E94670DD6CF5B013A
:101C5000AC1ABD0A4C018C0E9D1EA0915402B0918D
:101C60005502512C412CF12CE12C109731F580912B
:101C70005202909153028815990509F05CC04616EE
:101C8000570608F058C080910C0190910D01009703
:101C900041F48DB79EB74091100150911101841B02
:101CA000950BE817F90708F055C0F0935302E0933D
:101CB0005202F90171836083A0CF8D919C9111979D
:101CC00012966C90129713967C901397A815B905ED
:101CD00059F56C0142E0C40ED11CCA14DB0420F19A
:101CE000AC014A195B09DA011296159780F06282FD
:101CF000738251834083D9016D937C93E114F10485
:101D000071F0D7011396FC93EE93129776CF22963B
:101D10008C0F9D1FF90191838083F301EFCFF09326
:101D20005502E093540269CF4816590608F42C0175
:101D30007D01D3019ACFCB010E94CB0C7C0100978F
:101D400049F0AE01B8010E94AD0EC8010E94670DB6
:101D5000870153CF10E000E050CFFB01DC0102C04F
:101D600001900D9241505040D8F70895FB01DC01DD
:101D700001900D920020E1F7089510E0CDE5D0E04C
:101D800004C0FE010E94C50C2196CE35D107C9F7CB
:041D9000F894FFCFF5
:101D94000000824200000C420100000000005602D4
:101DA400800000000000000260018D014D02BE01B0
:101DB4009C01B00100000000B30360016E026D02DB
:101DC4006E616E00696E66006F76660048414E4F24
:101DD40049004D6F6E69746F72696E672E2E2E0006
:101DE4004C4F434154494F4E3A004E4849455444A0
:101DF4004F3A007C444F414D3A007C4D55413A00E6
:101E04000D0A00543A004320483A00250052414943
:0C1E14004E0053756E6E79204461790019
:00000001FF
